:100B2D0068696572206765687473206C6F73200047
:100B3D006869657220676568747320776569746587
:100B4D0072003A0068696572206765687473206C7D
:0E0B5D006F730067616E7A206C696E6B7300B7
:10091F00A0292120204469657320697374205A65CA
:10092F00696C6531202020202020202020202020CD
:10093F00202020202020202020202000A0294A75C0
:10094F006E6420646965732020202020207A6569F9
:10095F006C653220202020202020202020202020E5
:10096F002020202020202000837631320083733214
:10097F0033008120008313343400831D343500830A
:10098F001A343600821000648216000582180005A2
:10080000758901D2A9D28C758CD8758DF0D2AFD2F2
:1008100000120BA07F01120BDE7F80120BDE7BFF2C
:100820007A0B792D120B717BFF7A0B793D120B71CC
:100830007FC0120BDE120B6B7BFF7A0B794F120B12
:10084000717BFE7A007973120B7120B00E7F8A12D1
:100850000BDE7BFF7A0B7951120B7120B1057F0102
:10086000120BDE20B21A7FC0120BDE120B6B7BFF65
:100870007A0B794F120B717BFE7A007973120B7130
:1008800020B3C77F80120BDE7BFF7A0B7960120BDF
:030890007180B7BD
:100BC500E4FDFCC3ED9FEC9E500EE4FB0BEBB4A2E1
:080BD500FB0DBD00010C80EBDB
:010BDD0022F5
:100BA0007F2C7E01120BC5C290C291C2927F281287
:100BB0000BDED292C2927F28120BDE7F0C120BDE6C
:050BC0007F01020BDEC5
:070BDE00C290C2910209A0C0
:070BE500C291D2900209A0A9
:1009A0007E01EF339297EF25E0FF339296EF25E03B
:1009B000FF339295EF25E0FF339294EF25E0FFD2CD
:1009C00092D29200C292339297EF25E0FF33929633
:1009D000EF25E0FF339295EF25E0339294D2920019
:1009E000C292D297EE6015C290D291D292A297E4B1
:0C09F00033FEC292C292D292C29280E802
:0109FC0022D8
:060B6B007BFE7A007976A2
:0A0B71007879EBF208EAF208E9F2E5
:100B7B00E408F27879E2FB08E2FA08E2F908E2F518
:100B8B0082758300120A9BFF600A120BE5787CE2E8
:040B9B0004F280DF01
:010B9F002233
:0D09FD007800EFF208EBF208EAF208E9F2E8
:100A0A00E47807F27801E2FB08E2FA08E2F97807EB
:100A1A00E2F582758300120A9BFF60257800E2FDE9
:100A2A007807E2FBED2BF582E433F5837804E2FBE9
:100A3A0008E2FA08E2F9EF120AC87807E204F2803B
:010A4A00C3E8
:010A4B002288
:0D0A4C007808EFF208EBF208EAF208E9F290
:100A5900E4780FF27809E2FB08E2FA08E2F9780F84
:100A6900E2F582758300120A9BFF60257808E2FD92
:100A7900780FE2FBED2BF582E433F583780CE2FB8A
:100A890008E2FA08E2F9EF120AC8780FE204F280E4
:010A9900C399
:010A9A002239
:03000B00020AEAFC
:100AEA00C0E0C0D075D000C000758CD8758DF07884
:100AFA0011E224FFF218E234FFF208E2700218E26F
:100B0A00701A6380FF7810F2087464F27874E20451
:100B1A00F2E2B43A077430F218E204F2D000D0D00C
:030B2A00D0E032E6
:0300000002089360
:0C089300787FE4F6D8FD7581200208DAB9
:100A9B00BB010CE58229F582E5833AF583E0225010
:100AAB0006E92582F8E622BBFE06E92582F8E2225A
:0D0ABB00E58229F582E5833AF583E4932274
:100AC800F8BB010DE58229F582E5833AF583E8F064
:100AD800225006E92582C8F622BBFE05E92582C810
:020AE800F222F8
:10089F00020800E493A3F8E493A34003F68001F267
:1008AF0008DFF48029E493A3F85407240CC8C3335A
:1008BF00C4540F4420C8834004F456800146F6DF29
:1008CF00E4800B010204081020408090091FE47E91
:1008DF00019360BCA3FF543F30E509541FFEE4931E
:1008EF00A360010ECF54C025E060A840B8E493A3E5
:1008FF00FAE493A3F8E493A3C8C582C8CAC583CA10
:10090F00F0A3C8C582C8CAC583CADFE9DEE780BEC7
:01099F000057
:00000001FF
