:100B5E0068696572206765687473206C6F73200016
:100B6E006869657220676568747320776569746556
:100B7E0072003A0068696572206765687473206C4C
:0E0B8E006F730067616E7A206C696E6B730086
:10091F00A0292120204469657320697374205A65CA
:10092F00696C6531202020202020202020202020CD
:10093F00202020202020202020202000A0294A75C0
:10094F006E6420646965732020202020207A6569F9
:10095F006C653220202020202020202020202020E5
:10096F002020202020202000837631320083733214
:10097F0033008120008313343400831D343500830A
:10098F001A343600821000648216000582180005A2
:10080000758901D2A9D28C758CD8758DF0D2AFD2F2
:1008100000120BD17F01120C177F80120C177BFF87
:100820007A0B795E120BA27BFF7A0B796E120BA208
:100830007FC0120C17120B9C7BFF7A0B7980120B76
:10084000A27BFE7A007973120BA220B00E7F8A126F
:100850000C177BFF7A0B7982120BA220B1057F0166
:10086000120C1720B21A7FC0120C17120B9C7BFFC0
:100870007A0B7980120BA27BFE7A007973120BA29D
:1008800020B3C77F80120C177BFF7A0B7991120B74
:03089000A280B78C
:100BF600E4FDFCC3ED9FEC9E5016E4FBEBC394A210
:100C06007480948050030B80F30DBD00010C80E3CB
:010C160022BB
:100BD1007F2C7E01120BF6C290C291C2927F281225
:100BE1000C17D292C2927F28120C177F0C120C178D
:050BF1007F01020C175A
:070C1700C290C291020A6EB7
:070C1E00C291D290020A6EA0
:100A6E007E01EF339297EF25E0FF339296EF25E06C
:100A7E00FF339295EF25E0FF339294EF25E0FFD2FE
:100A8E0092D29200C292339297EF25E0FF33929664
:100A9E00EF25E0FF339295EF25E0339294D292004A
:100AAE00C292D297EE6015C290D291D292A297E4E2
:0C0ABE0033FEC292C292D292C29280E833
:010ACA002209
:060B9C007BFE7A00797671
:0A0BA2007879EBF208EAF208E9F2B4
:100BAC00E408F27879E2FB08E2FA08E2F908E2F5E7
:100BBC0082758300120ACBFF600A120C1E787CE24D
:040BCC0004F280DFD0
:010BD0002202
:0D09A0007800EFF208EBF208EAF208E9F245
:1009AD00E47807F27801E2FB08E2FA08E2F9780749
:1009BD00E2FFF582758300120ACBFD3395E04D60A1
:1009CD00387801E2FB08E2FA08E2F98F82758300BC
:1009DD00120ACBFF7800E2FD7807E2FBED2BF582E2
:1009ED00E433F5837804E2FB08E2FA08E2F9EF124A
:0909FD000AF87807E204F280AB6D
:010A060022CD
:0D0A07007808EFF208EBF208EAF208E9F2D5
:100A1400E4780FF27809E2FB08E2FA08E2F9780FC9
:100A2400E2FFF582758300120ACBFD3395E04D6039
:100A3400387809E2FB08E2FA08E2F98F827583004C
:100A4400120ACBFF7808E2FD780FE2FBED2BF5826A
:100A5400E433F583780CE2FB08E2FA08E2F9EF12DA
:090A64000AF8780FE204F280ABFD
:010A6D002266
:03000B00020B1ACB
:100B1A00C0E0C0D075D000C000758CD8758DF07853
:100B2A0011E224FFF218E234FFF208E2700218E23E
:100B3A00701B6380FF7810F2087464F27874E20420
:100B4A00F2E2643A70077430F218E204F2D000D08C
:040B5A00D0D0E032E5
:0300000002089360
:0C089300787FE4F6D8FD7581200208DAB9
:100ACB00BB010CE58229F582E5833AF583E02250E0
:100ADB0006E92582F8E622BBFE06E92582F8E2222A
:0D0AEB00E58229F582E5833AF583E4932244
:100AF800F8BB010DE58229F582E5833AF583E8F034
:100B0800225006E92582C8F622BBFE05E92582C8DF
:020B1800F222C7
:10089F00020800E493A3F8E493A34003F68001F267
:1008AF0008DFF48029E493A3F85407240CC8C3335A
:1008BF00C4540F4420C8834004F456800146F6DF29
:1008CF00E4800B010204081020408090091FE47E91
:1008DF00019360BCA3FF543F30E509541FFEE4931E
:1008EF00A360010ECF54C025E060A840B8E493A3E5
:1008FF00FAE493A3F8E493A3C8C582C8CAC583CA10
:10090F00F0A3C8C582C8CAC583CADFE9DEE780BEC7
:01099F000057
:00000001FF
