:030D0500011C3C92
:080D4800120C7C120CE580FE88
:100CE500758C06758A06758D3C758BB0758912D223
:100CF500A9D2ABD2A8D288D2AAD28AD2AFD28C221C
:100BE7008F1D120D5E120D63751600851D17751486
:100BF70000751502AE16AF177C007D0A120882ED4C
:100C07002430FF74112515F8A607AE16AF177C0020
:100C17007D0A1208828E168F17E5151515700215B5
:100C270014C3E514940050CC7B007A007911020CB0
:010C3700A11B
:100CC400E4FDFCC3ED9FEC9E5016E4FBEBC394A241
:100CD4007480948050030B80F30DBD00010C80E3FD
:010CE40022ED
:100C7C007F2C7E01120CC4C290C291C2927F2812AA
:100C8C000D50D292C2927F28120D507F0C120D5033
:050C9C007F01020D5074
:070D5000C290C291020B8E5C
:070D5700C291D290020B8E45
:100B8E007E01EF339297EF25E0FF339296EF25E04B
:100B9E00FF339295EF25E0FF339294EF25E0FFD2DD
:100BAE009200C292339297EF25E0FF339296EF2593
:100BBE00E0FF339295EF25E0339294D29200C292E9
:100BCE00D297EE6013C290D291D292A297E433FEE6
:080BDE00C292D292C29280EA99
:010BE60022EC
:060CA1008B188A19891A64
:100CA700E4F51BAB18AA19A91A851B8275830012D4
:0C0CB7000800FF6007120D57051B80E7C6
:010CC300220E
:050D5E007F01020D50B1
:050D63007F80020D502D
:050D68007FC0020D50E8
:100D0800020F0000020D000002080000010A0001A5
:050D18000C00010B00BE
:100D1E00C28E758D3C758BB0E4F50FF510F50DF5A3
:040D2E000ED28E2231
:03000300020D32B9
:0B0D3200C0E0750C01120D1ED0E03275
:03000B00020A7274
:100A7200C0E0C0F0C083C082C0D075D000C000C04A
:100A820001C002C003C004C005C006C007050AE5D4
:100A92000A6404700B0509E50970020508750A006D
:100AA200AF1CAB07E4FAF9F87F607EEAFDFC120C9A
:100AB20038A804A905AA06AB07AE08AF09E4FCFDF5
:100AC200D31208B8500E758000750B0175080075B9
:100AD20009008011E50B600DE509646445087005A5
:100AE2007580FFF50BD007D006D005D004D003D017
:100AF20002D001D000D0D0D082D083D0F0D0E0326A
:03001300020D3D9E
:0B0D3D00C0E0750C02120D1ED0E03269
:03001B0002099C3B
:10099C00C0E0C0F0C0D075D000C000C004C005C01D
:1009AC0006C007E50C30E03F20B23CAE0FAF107C28
:1009BC00017DF412082DED4C7023C3E5109488E5ED
:1009CC000F94135004051C80067405251CF51CC3DC
:1009DC00E51C94FF748094805003751CFF0510E592
:1009EC0010706C050F8068E50C30E13F20B33CAE15
:1009FC000DAF0E7C017DF412082DED4C7023C3E578
:100A0C000E9488E50D94135004151C800674FB2578
:100A1C001CF51CC3E51C9401748094805003751C58
:100A2C0001050EE50E7028050D8024E50C30E00E56
:100A3C0030B20B750F00751000530CFE8011E50CD5
:100A4C0030E10C30B309750D00750E00530CFD75BB
:100A5C008D3C758BB0D007D006D005D004D000D01B
:060A6C00D0D0F0D0E03212
:03000000020B02EE
:0C0B0200787FE4F6D8FD75811D020B49D8
:10080000BB010CE58229F582E5833AF583E02250AD
:1008100006E92582F8E622BBFE06E92582F8E222F7
:0D082000E58229F582E5833AF583E4932211
:10082D00BC000BBE0029EF8DF084FFADF022E4CCAF
:10083D00F875F008EF2FFFEE33FEEC33FCEE9DEC78
:10084D00984005FCEE9DFE0FD5F0E9E4CEFD22EDBE
:10085D00F8F5F0EE8420D21CFEADF075F008EF2F08
:10086D00FFED33FD4007985006D5F0F222C398FDF9
:05087D000FD5F0EA2296
:10088200C2D5EC30E709B2D5E4C39DFDE49CFCEE91
:1008920030E715B2D5E4C39FFFE49EFE12082DC3D4
:1008A200E49DFDE49CFC800312082D30D507C3E4CF
:0608B2009FFFE49EFE2200
:100C3800C2D5E830E70FB2D5E4C39BFBE49AFAE4E7
:100C480099F9E498F8EC30E717B2D5120C6E12094E
:100C58000AE4C39BFBE49AFAE499F9E498F8800360
:100C680012090A30D50DE4C39FFFE49EFEE49DFD02
:040C7800E49CFC22DA
:1008B800EB9FF5F0EA9E42F0E99D42F0EC6480C8B7
:0608C80064809845F02257
:100B0E00020D48E493A3F8E493A34003F68001F2A8
:100B1E0008DFF48029E493A3F85407240CC8C333E8
:100B2E00C4540F4420C8834004F456800146F6DFB7
:100B3E00E4800B0102040810204080900D05E47E35
:100B4E00019360BCA3FF543F30E509541FFEE493AC
:100B5E00A360010ECF54C025E060A840B8E493A373
:100B6E00FAE493A3F8E493A3C8C582C8CAC583CA9E
:100B7E00F0A3C8C582C8CAC583CADFE9DEE780BE56
:010D1D0000D5
:1008CE0075F008758200EF2FFFEE33FECD33CDCCE1
:1008DE0033CCC58233C5829BED9AEC99E582984064
:1008EE000CF582EE9BFEED9AFDEC99FC0FD5F0D641
:1008FE00E4CEFBE4CDFAE4CCF9A88222B800C1B96B
:10090E000059BA002DEC8BF084CFCECDFCE5F0CBA8
:10091E00F97818EF2FFFEE33FEED33FDEC33FCEBE1
:10092E0033FB10D703994004EB99FB0FD8E5E4F99C
:10093E00FA227818EF2FFFEE33FEED33FDEC33FC89
:10094E00C933C910D7059BE99A4007EC9BFCE99A7D
:10095E00F90FD8E0E4C9FAE4CCFB2275F010EF2FC2
:10096E00FFEE33FEED33FDCC33CCC833C810D707C2
:10097E009BEC9AE899400AED9BFDEC9AFCE899F8FD
:0E098E000FD5F0DAE4CDFBE4CCFAE4C8F92290
:00000001FF
