:06099E00C100020A000284
:0300030002088C64
:10088C00C0E0C0F0C083C082C0D075D000C000C032
:10089C0001C002C003C004C005C006C007208C06FE
:1008AC00200003120912D2B2D007D006D005D00412
:1008BC00D003D002D001D000D0D0D082D083D0F0E1
:0308CC00D0E03247
:030013000208CF11
:1008CF00C0E0C0F0C083C082C0D075D000C000C0EF
:1008DF0001C002C003C004C005C006C007208C06BB
:1008EF00200003120912D2B3D007D006D005D004CE
:1008FF00D003D002D001D000D0D0D082D083D0F09E
:03090F00D0E03203
:03000B0002095097
:10095000C0E0E50B150B7002150AE50B450A701592
:10096000F50A750B04E509150970021508E5094536
:08097000087002C28CD0E032D5
:0509A50012097880FE3C
:100978007590C3C28C758902758A06858A8CD2A83F
:0B098800D288D2AAD28AD2A9D2AF2214
:040993007F017E0062
:070997008E088F09D28C22AB
:10091200D200D293C291D292C290120993208CFD3E
:10092200D295C293D294C292120993208CFDD29294
:10093200C294D293C295120993208CFDD290C29296
:0E094200D291C2937F057E00120997C2002257
:03000000020800F3
:0C080000787FE4F6D8FD758120020847DF
:10080C000209A5E493A3F8E493A34003F68001F254
:10081C0008DFF48029E493A3F85407240CC8C333ED
:10082C00C4540F4420C8834004F456800146F6DFBC
:10083C00E4800B010204081020408090099EE47EA5
:10084C00019360BCA3FF543F30E509541FFEE493B1
:10085C00A360010ECF54C025E060A840B8E493A378
:10086C00FAE493A3F8E493A3C8C582C8CAC583CAA3
:10087C00F0A3C8C582C8CAC583CADFE9DEE780BE5B
:0109A4000052
:00000001FF
