:100B2800020A0000020E0000020C0000021200007F
:040B38000210003C6B
:100B0E00758911758A18758CFC858A8B858C8BD2AC
:0A0B1E00A9A2A992ABD2AFD28C229B
:040ABB00AB07AA06D5
:100ABF00900000AF82EF2404FF74017E00A80708A6
:100ACF008005C333CE33CED8F9F5158E147C007D57
:100ADF000AAF03AE02120901ED4215EC42147C007D
:100AEF007D0AAF03AE02120901AA06AB07E5144552
:0E0AFF001524FF9290A3E5826404458370B530
:010B0D0022C5
:03000B000209A245
:1009A200C0E0C0F0C083C082C0D075D000C000C01B
:1009B20001C002C003C004C005C006C007050BE5A4
:1009C2000B7002050AAE0AFFEE3395E0FDFCE47BF4
:1009D200EBFAF9F8C31209377028F50AF50B050F7F
:1009E200E50F7002050EC3E49511FF74019510FE28
:1009F200EFB50F18EEB50E14750E00750F00D28705
:100A0200800AE50B6464450A7002C287758A18750C
:100A12008CFCD007D006D005D004D003D002D00180
:0D0A2200D000D0D0D082D083D0F0D0E03210
:03001B00020800D8
:10080000C0E0C0F0C083C082C0D075D000C000C0BE
:1008100001C002C003C004C005C006C007050DE545
:100820000D7002050CD394F4E50C648094815003A0
:100830000208E075080075090030802BE513940A62
:10084000E51264809480500A0509E509700F0508D7
:10085000800B74052509F509E43508F5080513E54D
:1008600013703C0512803830812DC3E513940AE5DE
:100870001264809480500AE50915097010150880EB
:100880000C74FB2509F50974FF3508F5080513E517
:1008900013700C05128008C28E751200751300E5E6
:1008A000112509FFE5103508FED3EF94FFEE6480B3
:1008B000948040047FFF8017E5112509FFE510357E
:1008C00008FEC3EF9401EE6480948050067F017EA1
:1008D00000800AE5112509FFE5103508FE120B4CD2
:1008E000758A18758CFCD007D006D005D004D003CB
:1008F000D002D001D000D0D0D082D083D0F0D0E0D0
:0109000032C4
:060B5300120B0E020B3D27
:0F0B3D00A281308001B350F8208EF5D28E80F166
:070B4C008E108F11020ABB9D
:03000000020A2FC2
:0C0A2F00787FE4F6D8FD758115020A7688
:10090100C2D5EC30E709B2D5E4C39DFDE49CFCEE11
:1009110030E715B2D5E4C39FFFE49EFE12094DC333
:10092100E49DFDE49CFC800312094D30D507C3E42E
:060931009FFFE49EFE2280
:10093700EB9FF5F0EA9E42F0E99D42F0EC6480C837
:0609470064809845F022D7
:100A3B00020B53E493A3F8E493A34003F68001F273
:100A4B0008DFF48029E493A3F85407240CC8C333BC
:100A5B00C4540F4420C8834004F456800146F6DF8B
:100A6B00E4800B0102040810204080900B28E47EE8
:100A7B00019360BCA3FF543F30E509541FFEE49380
:100A8B00A360010ECF54C025E060A840B8E493A347
:100A9B00FAE493A3F8E493A3C8C582C8CAC583CA72
:100AAB00F0A3C8C582C8CAC583CADFE9DEE780BE2A
:010B3C0000B8
:10094D00BC000BBE0029EF8DF084FFADF022E4CC8E
:10095D00F875F008EF2FFFEE33FEEC33FCEE9DEC57
:10096D00984005FCEE9DFE0FD5F0E9E4CEFD22ED9D
:10097D00F8F5F0EE8420D21CFEADF075F008EF2FE7
:10098D00FFED33FD4007985006D5F0F222C398FDD8
:05099D000FD5F0EA2275
:00000001FF
