:100A7E00060E00070001000106160000000000002F
:0E0A8E0002080000020A0000C1000214000469
:03000B00020A0CDA
:100A0C00C0E0E515151570021514E51545147017A1
:100A1C00F514751504E50D150D7002150CE50D4555
:0A0A2C000C7004C28CC200D0E0324E
:080AB500120A9D12092880FBC2
:100A9D00D280D281D282D283C28C758902758A05A9
:080AAD00858A8CD2A9D2AF2288
:1009280020B0237FFA7E00120A72C3E5099408E515
:100938000864809480500A0509E509700905088053
:1009480005E4F508F50920B1597FFA7E00120A720C
:10095800E50B25E02416F8A60808A609050BE50B03
:100968007002050AE4F508F509E50B6403450A7009
:1009780031E50B25E02416F8A60808A609E4F50ACF
:10098800F50BF508F5091209ADEF4E6005120A36A8
:1009980080031209E0E4F51AF51BF518F519F516A8
:0509A800F51702080034
:100A5E00D287D286D285D284D283D282D281D280DC
:040A6E007FE87E039C
:0C0A72008E0C8F0DD28CD2002000FD22D3
:10080000C3E5099401E508648094804003D3800126
:10081000C3B39280C3E5099402E5086480948040E4
:1008200003D38001C3B39281C3E5099403E508644F
:100830008094804003D38001C3B39282C3E50994BE
:1008400004E508648094804003D38001C3B392839D
:10085000C3E5099405E508648094804003D38001D2
:10086000C3B39284C3E5099406E50864809480408C
:1008700003D38001C3B39285C3E5099407E50864F7
:100880008094804003D38001C3B39286E509640855
:0C08900045087003D38001C3B392872297
:1009AD00E4FFFEEF25E02416F8E6FC08E6FDEF2552
:1009BD00E0240EF8E6FA08E66D7002EA6C6004E4D5
:1009CD00FEFF220FBF00010EEF64034E70D57E00B7
:0209DD007F0198
:0109DF0022F5
:100A3600C287C286C285C284C283C282C281C28084
:100A46007FB87E0B120A72D287D286D285D284D222
:080A560083D282D281D28022FA
:1009E000120A5EE4FDFCC287C286C285C284C2834D
:1009F000C282C281C2807F0A7E00120A72120A5E1F
:0B0A00000DBD00010CED64034C70DB29
:010A0B0022C8
:0300000002089C57
:0C089C00787FE4F6D8FD7581200208E3A7
:1008A800020AB5E493A3F8E493A34003F68001F2A7
:1008B80008DFF48029E493A3F85407240CC8C33351
:1008C800C4540F4420C8834004F456800146F6DF20
:1008D800E4800B0102040810204080900A7EE47E28
:1008E800019360BCA3FF543F30E509541FFEE49315
:1008F800A360010ECF54C025E060A840B8E493A3DC
:10090800FAE493A3F8E493A3C8C582C8CAC583CA06
:10091800F0A3C8C582C8CAC583CADFE9DEE780BEBE
:010A9C000059
:00000001FF
