:0210DC002A00E8
:0E0DF7000267FFFF02690000016600016B0049
:0510C800120B4E80FE3A
:1010A400C28C758A05858A8CE4F563F560F55FF575
:0610B4005EF55DD28C2206
:100F04008E538F54120FEDEF2568F568EE3567F5B3
:100F140067E5662568F568E43567F567E55425688F
:100F2400F568E5533567F567C3E568956AF56605C1
:0F0F34006B120FEDEF256AF56AEE3569F569224C
:100F4300E568F47003E567F46031C3E568943EE552
:100F53006764809480500C74132568F8E6FF1210C0
:100F6300C180097BFF7A1079DC12104274FFF567A8
:0C0F7300F568E4F566F56BF569F56A2297
:090FED00E56BFD7C007F027E0033
:080FF6008E558F568C578D5863
:100FFE007F017E00E4FBFAC3EB9558EA9557500E3D
:0E100E00AC55AD56120A920BBB00010A80E9E8
:01101C0022B1
:10106500E4FDFCC3ED9FEC9E5016E4FBEBC394A29C
:101075007480948050030B80F30DBD00010C80E358
:011085002248
:10101D007F2C7E01121065C290C291C2927F281260
:10102D0010BAD292C2927F281210BA7F0C1210BA47
:05103D007F010210BA62
:0710BA00C290C291020E5723
:0710C100C291D290020E570C
:100E57007E01EF339297EF25E0FF339296EF25E07F
:100E6700FF339295EF25E0FF339294EF25E0FFD211
:100E77009200C292339297EF25E0FF339296EF25C7
:100E8700E0FF339295EF25E0339294D29200C2921D
:100E9700D297EE6013C290D291D292A297E433FE1A
:080EA700C292D292C29280EACD
:010EAF002220
:061042008B598A5A895BFC
:10104800E4F55CAB59AA5AA95B855C8275830012EA
:0C1058000A65FF60071210C1055C80E70C
:011064002269
:0510CD007F010210BAD2
:0510D2007F800210BA4E
:0510D7007FC00210BA09
:100FBA002057504D207C2000206D732070657220D0
:100FCA00646974007573696E6720225041524953EF
:100FDA0022207769746820353020656C656D656EEE
:030FEA007473001D
:100E0500203E13455449414E4D53555257444B4787
:100E15004F485646234C23504A425843595A51236A
:100E2500233534233323232332232323232323234B
:100E3500313623232323232323372323233823391D
:080E450030020F0001010E0153
:100B4E00E5B054F0C4540F2401FFE433FE7C007D65
:100B5E0019120A928E0F8F1012108612101D12107B
:100B6E00CD1210D2AE0FAF107C007D32120A92ACB5
:100B7E0006AD07E41209ABA804A905AA06AB077FC8
:100B8E00007E607D6A7C47120909E4FBFA792078C1
:100B9E00411208001209E48E0C8F0D7C007D0A12A2
:100BAE000AA4ED2430F50B750A2C7511007512018F
:100BBE00AE0CAF0D7C007D0A120AA48E0C8F0D7C3C
:100BCE00007D0A120AA4ED2430FF74082512F8A63F
:100BDE0007E512151270021511E512B4FFD2E511D8
:100BEE00B4FFCD7B007A0079081210427BFF7A0F9A
:100BFE0079BA121042850F51851052751100751277
:100C0E0002AE51AF527C007D0A120AA4ED2430FFD1
:100C1E0074082512F8A607AE51AF527C007D0A1259
:100C2E000AA48E518F52E512151270021511E5129B
:100C3E00B4FFCEE511B4FFC9E4F50BFB7A007908D9
:100C4E001210427BFF7A0F79C21210421210D77B1C
:0C0C5E00FF7A0F79CE121042750E0122B1
:0210DE002000F0
:090E4D000163000165000164016C
:10108600C28C758902758A05858A8CD2B9D2A9D295
:0E10960088C2B8D2A8D28AD2AAD2AFD28C22F7
:03000300020EB03A
:100EB000C0E0C0F0C083C082C0D075D000C000C008
:100EC00001C002C003C004C005C006C007E50E6033
:100ED0000F1210CD750E007FC87E001210658006BF
:100EE0007565017564001210A4D007D006D005D036
:100EF00004D003D002D001D000D0D0D082D083D093
:040F0000F0D0E0321B
:03000B00020C6A7A
:100C6A00C0E0C0F0C083C082C0D075D000C000C050
:100C7A0001C002C003C004C005C006C0070563E581
:100C8A006364047017F563E5602401F560E4355F79
:100C9A00F55FE4355EF55EE4355DF55DE50E7054AD
:100CAA0030B251E565604D756500756400AE0FAFF1
:100CBA00107C007D03120A92E4FDAB60AA5FA95E74
:100CCA00A85DC3120AE85005E4FFFE801FAE0FAF0D
:100CDA00107C007D03120A92E4FDAB60AA5FA95E54
:100CEA00A85DC3120AE840077F017E00120F0412B2
:100CFA0010A48052E565704EE50E704AE5647046B0
:100D0A00AE0FAF10FC7D07120A92E4FDAB60AA5F3A
:100D1A00A95EA85DC3120AE8400E7BFF7A1079DE4D
:100D2A00121042756401801EAE0FAF107C007D0365
:100D3A00120A92E4FDAB60AA5FA95EA85DC3120A1B
:100D4A00E84003120F43D007D006D005D004D003E1
:100D5A00D002D001D000D0D0D082D083D0F0D0E061
:010D6A003256
:03001300020F7F5A
:100F7F00C0E0C0F0C083C082C0D075D000C000C038
:100F8F0001C002C003C004C005C006C0071210CDC7
:100F9F00D007D006D005D004D003D002D001D000A6
:0B0FAF00D0D0D082D083D0F0D0E03250
:10080000EC4D6011E8497017ED33EC3304600DE4F2
:10081000FCFFFEFD22E933E8330470F8020A5012AF
:100820000A1B58046009E4CC2481500628500902B0
:100830000A5A284003020A57C0E0EB4A7044B980C4
:1008400006D0E0FB020A46EF4E701CBD8008EBFFAD
:10085000EAFEE9FD80EBE98DF0A4FEE5F00208E98F
:10086000E9CDF9EAFEEBFFEF89F0A4FCE5F0CE89D3
:10087000F0A42EFFE435F0CD89F0A42DFEE435F090
:100880008067EF4E7005BD80D780C3EF8BF0A4ACBE
:10089000F0EE8BF0A42CFCE435F0F8EF8AF0A42CF9
:1008A000E5F038FCE433CB8DF0A42CFCE5F03BF80C
:1008B000EE8AF0A42CFCE5F038F8E433CF89F0A4FC
:1008C0002CFCE5F038CF3400CE89F0A42FFFE5F002
:1008D0003EFEE433C98DF0A42EFEE5F039CD8AF05A
:1008E000A42FFFE5F03EFEE43DFD33D0E0FB5007D2
:1008F0000BBB000F020A5AEC2CFCEF33FFEE33FE69
:06090000ED33FD020A3296
:10090600020A5AEC5D046005E859047003020A50B5
:10091600120A1B580460F6EC4860F2EC7004FDFE07
:10092600FF22C860DB2481C85009C39860025006C4
:10093600020A579850CAF582E9294B4A7005AB82DC
:10094600020A4675F0007C1A7880C3EF9BEE9AED9A
:1009560099400DC3EF9BFFEE9AFEED99FDE842F03C
:10096600DC23ACF0D0E0FFD0E0FED0E0FDAB82208F
:10097600E7101BEB60BAEC2CFCEF33FFEE33FEED19
:1009860033FD020A32E803F830E705C0F075F000DF
:10099600EF2FFFEE33FEED33FD40B830E7C280AAFD
:1009A60075F020800E75F010800575F0087D007ECC
:1009B600007F003392D530D503120ADAEC334010AB
:1009C600EF33FFEE33FEED33FDEC33FCD5F0ED22D5
:0E09D600E5F0247EA2D513CC92E7CDCEFF2211
:1009E400EDD2E7CD33EC3392D524814006E4FFFE0B
:1009F400FDFC22FCE4CFCECDCC24E0501174FF806A
:100A0400EDC3CC13CCCD13CDCE13CECF13CF047006
:070A1400F030D5DE020ADA22
:100A1B00E9D2E7C933E833F892D5EDD2E7CD33EC21
:070A2B0033FC5002B2D5229A
:100A3200EC30E7100FBF000C0EBE00080DBD000425
:100A42000BEB6014A2D5EB13FCED92E7FD2274FFD1
:100A5200FCFDFEFF22E480F8A2D574FF13FC7D802A
:030A6200E480EF3E
:03000000020D6B83
:0C0D6B00787FE4F6D8FD75816B020DB2B4
:100A6500BB010CE58229F582E5833AF583E0225046
:100A750006E92582F8E622BBFE06E92582F8E22290
:0D0A8500E58229F582E5833AF583E49322AA
:100A9200EF8DF0A4A8F0CF8CF0A428CE8DF0A42E78
:020AA200FE2232
:100AA400C2D5EC30E709B2D5E4C39DFDE49CFCEE6D
:100AB40030E715B2D5E4C39FFFE49EFE120AF9C3E2
:100AC400E49DFDE49CFC8003120AF930D507C3E4DD
:060AD4009FFFE49EFE22DC
:0E0ADA00C3E49FFFE49EFEE49DFDE49CFC222D
:100AE800EB9FF5F0EA9E42F0E99D42F0E89C45F064
:010AF80022DB
:100D77000210C8E493A3F8E493A34003F68001F2BA
:100D870008DFF48029E493A3F85407240CC8C3337D
:100D9700C4540F4420C8834004F456800146F6DF4C
:100DA700E4800B0102040810204080900DF7E47ED8
:100DB700019360BCA3FF543F30E509541FFEE49341
:100DC700A360010ECF54C025E060A840B8E493A308
:100DD700FAE493A3F8E493A3C8C582C8CAC583CA33
:100DE700F0A3C8C582C8CAC583CADFE9DEE780BEEB
:010E5600009B
:100AF900BC000BBE0029EF8DF084FFADF022E4CCE1
:100B0900F875F008EF2FFFEE33FEEC33FCEE9DECA9
:100B1900984005FCEE9DFE0FD5F0E9E4CEFD22EDEF
:100B2900F8F5F0EE8420D21CFEADF075F008EF2F39
:100B3900FFED33FD4007985006D5F0F222C398FD2A
:050B49000FD5F0EA22C7
:00000001FF
