:0E0DF3000267FFFF02690000016600016B004D
:05106E00120B4E80FE94
:10104A00C28C758A05858A8CE4F563F560F55FF5CF
:06105A005EF55DD28C2260
:100F00008E538F54E56BFD7C007F027E00120F79BB
:100F1000EF2568F568EE3567F567E5662568F568DD
:100F2000E43567F567E5542568F568E5533567F5F9
:100F300067C3E568956AF566056BE56B256AF56A32
:060F4000E43569F56922A9
:100FC800E568F47003E567F4601974132568F8E6BA
:100FD800FF12106774FFF567F568E4F566F56BF5C1
:040FE80069F56A221B
:080F79008C558D56AB07AA064A
:100F8100E4F9E9C39556E495555012AE57AF58AD03
:100F910003AC02120A928E578F580980E5AE02AF58
:010FA100034C
:010FA200222C
:10100F00E4FDFCC3ED9FEC9E5016E4FBEBC394A2F2
:10101F007480948050030B80F30DBD00010C80E3AE
:01102F00229E
:100FA3007F2C7E0112100FC290C291C2927F281231
:100FB3001060D292C2927F281210607F0C121060D0
:050FC3007F0102106037
:07106000C290C291020E5381
:07106700C291D290020E536A
:100E53007E01EF339297EF25E0FF339296EF25E083
:100E6300FF339295EF25E0FF339294EF25E0FFD215
:100E73009200C292339297EF25E0FF339296EF25CB
:100E8300E0FF339295EF25E0339294D29200C29221
:100E9300D297EE6013C290D291D292A297E433FE1E
:080EA300C292D292C29280EAD1
:010EAB002224
:060FEC008B598A5A895B53
:100FF200E4F55CAB59AA5AA95B855C827583001241
:0C1002000A65FF6007121067055C80E7BC
:01100E0022BF
:051073007F0102106086
:051078007F8002106002
:05107D007FC0021060BD
:100F46002057504D207C2000206D73207065722044
:100F5600646974007573696E672022504152495363
:100F660022207769746820353020656C656D656E62
:030F760074730091
:100E0100203E13455449414E4D53555257444B478B
:100E11004F485646234C23504A425843595A51236E
:100E2100233534233323232332232323232323234F
:100E31003136232323232323233723232338233921
:080E410030020F0001010E0157
:100B4E00E5B054F0C4540F2401FFE433FE7C007D65
:100B5E0019120A928E0F8F10121030120FA312104C
:100B6E0073121078AE0FAF107C007D32120A92AC69
:100B7E0006AD07E41209ABA804A905AA06AB077FC8
:100B8E00007E607D6A7C47120909E4FBFA792078C1
:100B9E00411208001209E48E0C8F0D7C007D0A12A2
:100BAE000AA4ED2430F50B750A2C7511007512018F
:100BBE00AE0CAF0D7C007D0A120AA48E0C8F0D7C3C
:100BCE00007D0A120AA4ED2430FF74082512F8A63F
:100BDE0007E512151270021511E512B4FFD2E511D8
:100BEE00B4FFCD7B007A007908120FEC7BFF7A0FF1
:100BFE007946120FEC850F51851052751100751242
:100C0E0002AE51AF527C007D0A120AA4ED2430FFD1
:100C1E0074082512F8A607AE51AF527C007D0A1259
:100C2E000AA48E518F52E512151270021511E5129B
:100C3E00B4FFCEE511B4FFC9E4F50BFB7A007908D9
:100C4E00120FEC7BFF7A0F794E120FEC12107D7B98
:0C0C5E00FF7A0F795A120FEC750E01227C
:021082002A0042
:090E490001630001650001640170
:10103000C28C758902758A05858A8CD2B9D2A9D2EB
:0A10400088C2B8D2A8D2AFD28C2229
:03000300020EAC3E
:100EAC00C0E0C0F0C083C082C0D075D000C000C00C
:100EBC0001C002C003C004C005C006C007E50E6037
:100ECC000F121073750E007FC87E0012100F800673
:100EDC0075650175640012104AD007D006D005D094
:100EEC0004D003D002D001D000D0D0D082D083D097
:040EFC00F0D0E03220
:03000B00020C6A7A
:100C6A00C0E0C0F0C083C082C0D075D000C000C050
:100C7A0001C002C003C004C005C006C0070563E581
:100C8A006364047017F563E5602401F560E4355F79
:100C9A00F55FE4355EF55EE4355DF55DE50E7054AD
:100CAA0030B251E565604D756500756400AE0FAFF1
:100CBA00107C007D03120A92E4FDAB60AA5FA95E74
:100CCA00A85DC3120AE85005E4FFFE801FAE0FAF0D
:100CDA00107C007D03120A92E4FDAB60AA5FA95E54
:100CEA00A85DC3120AE840077F017E00120F0012B6
:100CFA00104A804EE565704AE50E7046756401AE8D
:100D0A000FAF10FC7D03120A92E4FDAB60AA5FA943
:100D1A005EA85DC3120AE84005120FC88024AE0F10
:100D2A00AF107C007D07120A92E4FDAB60AA5FA9AE
:100D3A005EA85DC3120AE840097BFF7A1079821225
:100D4A000FECD007D006D005D004D003D002D001D2
:0D0D5A00D000D0D0D082D083D0F0D0E032D5
:10080000EC4D6011E8497017ED33EC3304600DE4F2
:10081000FCFFFEFD22E933E8330470F8020A5012AF
:100820000A1B58046009E4CC2481500628500902B0
:100830000A5A284003020A57C0E0EB4A7044B980C4
:1008400006D0E0FB020A46EF4E701CBD8008EBFFAD
:10085000EAFEE9FD80EBE98DF0A4FEE5F00208E98F
:10086000E9CDF9EAFEEBFFEF89F0A4FCE5F0CE89D3
:10087000F0A42EFFE435F0CD89F0A42DFEE435F090
:100880008067EF4E7005BD80D780C3EF8BF0A4ACBE
:10089000F0EE8BF0A42CFCE435F0F8EF8AF0A42CF9
:1008A000E5F038FCE433CB8DF0A42CFCE5F03BF80C
:1008B000EE8AF0A42CFCE5F038F8E433CF89F0A4FC
:1008C0002CFCE5F038CF3400CE89F0A42FFFE5F002
:1008D0003EFEE433C98DF0A42EFEE5F039CD8AF05A
:1008E000A42FFFE5F03EFEE43DFD33D0E0FB5007D2
:1008F0000BBB000F020A5AEC2CFCEF33FFEE33FE69
:06090000ED33FD020A3296
:10090600020A5AEC5D046005E859047003020A50B5
:10091600120A1B580460F6EC4860F2EC7004FDFE07
:10092600FF22C860DB2481C85009C39860025006C4
:10093600020A579850CAF582E9294B4A7005AB82DC
:10094600020A4675F0007C1A7880C3EF9BEE9AED9A
:1009560099400DC3EF9BFFEE9AFEED99FDE842F03C
:10096600DC23ACF0D0E0FFD0E0FED0E0FDAB82208F
:10097600E7101BEB60BAEC2CFCEF33FFEE33FEED19
:1009860033FD020A32E803F830E705C0F075F000DF
:10099600EF2FFFEE33FEED33FD40B830E7C280AAFD
:1009A60075F020800E75F010800575F0087D007ECC
:1009B600007F003392D530D503120ADAEC334010AB
:1009C600EF33FFEE33FEED33FDEC33FCD5F0ED22D5
:0E09D600E5F0247EA2D513CC92E7CDCEFF2211
:1009E400EDD2E7CD33EC3392D524814006E4FFFE0B
:1009F400FDFC22FCE4CFCECDCC24E0501174FF806A
:100A0400EDC3CC13CCCD13CDCE13CECF13CF047006
:070A1400F030D5DE020ADA22
:100A1B00E9D2E7C933E833F892D5EDD2E7CD33EC21
:070A2B0033FC5002B2D5229A
:100A3200EC30E7100FBF000C0EBE00080DBD000425
:100A42000BEB6014A2D5EB13FCED92E7FD2274FFD1
:100A5200FCFDFEFF22E480F8A2D574FF13FC7D802A
:030A6200E480EF3E
:03000000020D6787
:0C0D6700787FE4F6D8FD75816B020DAEBC
:100A6500BB010CE58229F582E5833AF583E0225046
:100A750006E92582F8E622BBFE06E92582F8E22290
:0D0A8500E58229F582E5833AF583E49322AA
:100A9200EF8DF0A4A8F0CF8CF0A428CE8DF0A42E78
:020AA200FE2232
:100AA400C2D5EC30E709B2D5E4C39DFDE49CFCEE6D
:100AB40030E715B2D5E4C39FFFE49EFE120AF9C3E2
:100AC400E49DFDE49CFC8003120AF930D507C3E4DD
:060AD4009FFFE49EFE22DC
:0E0ADA00C3E49FFFE49EFEE49DFDE49CFC222D
:100AE800EB9FF5F0EA9E42F0E99D42F0E89C45F064
:010AF80022DB
:100D730002106EE493A3F8E493A34003F68001F218
:100D830008DFF48029E493A3F85407240CC8C33381
:100D9300C4540F4420C8834004F456800146F6DF50
:100DA300E4800B0102040810204080900DF3E47EE0
:100DB300019360BCA3FF543F30E509541FFEE49345
:100DC300A360010ECF54C025E060A840B8E493A30C
:100DD300FAE493A3F8E493A3C8C582C8CAC583CA37
:100DE300F0A3C8C582C8CAC583CADFE9DEE780BEEF
:010E5200009F
:100AF900BC000BBE0029EF8DF084FFADF022E4CCE1
:100B0900F875F008EF2FFFEE33FEEC33FCEE9DECA9
:100B1900984005FCEE9DFE0FD5F0E9E4CEFD22EDEF
:100B2900F8F5F0EE8420D21CFEADF075F008EF2F39
:100B3900FFED33FD4007985006D5F0F222C398FD2A
:050B49000FD5F0EA22C7
:00000001FF
