:100E8200025EFFFF02600000025C000002620000DE
:05109200120CC880FEF5
:10106600C28C758A05858A8CE4F56AF567F566F59E
:0610760065F564D28C2236
:100F3700E5636402255FF55FE562355EF55EE55DB5
:100F4700255FF55FE55C355EF55EEF255FF55FEEE6
:100F5700355EF55EC3E55F9561F55DE55E9560F528
:100F67005C0563E5637002056264022561F561E56E
:060F7700623560F5602206
:100FD8007413255FF8E6F5537B007A0079531210F5
:100FE8002274FFF55EF55FE4F55CF55DF562F56387
:040FF800F560F5614A
:010FFC0022D2
:10104500E4FDFCC3ED9FEC9E5016E4FBEBC394A2BC
:101055007480948050030B80F30DBD00010C80E378
:011065002268
:100FFD007F2C7E01121045C290C291C2927F2812A1
:10100D001084D292C2927F281210847F0C12108409
:05101D007F01021084B8
:07108400C290C291020EDED2
:07108B00C291D290020EDEBB
:100EDE007E01EF339297EF25E0FF339296EF25E0F8
:100EEE00FF339295EF25E0FF339294EF25E0FFD28A
:100EFE009200C292339297EF25E0FF339296EF2540
:100F0E00E0FF339295EF25E0339294D29200C29295
:100F1E00D297EE6013C290D291D292A297E433FE92
:080F2E00C292D292C29280EA45
:010F36002298
:061022008B588A59895A1F
:10102800E4F55BAB58AA59A95A855B82758300120F
:0C1038000A65FF600712108B055B80E763
:011044002289
:051097007F010210843E
:05109C007F80021084BA
:0510A1007FC002108475
:100F7D002057504D207C2000206D7320706572200D
:100F8D00646974007573696E67202250415249532C
:100F9D0022207769746820353020656C656D656E2B
:030FAD007473005A
:100E9200203E13455449414E4D53555257444B47FA
:100EA2004F485646234C23504A425843595A5123DD
:100EB20023353423332323233223232323232323BE
:100EC2003136232323232323233723232338233990
:080ED20030020F0001010E01C6
:100CC800E5B054F0C4540F2401FFE433FE7C007DEA
:100CD80019120A928E0F8F10C28C758902758A05B7
:100CE800858A8CD2A9C288D2A8D2AFD28C120FFD25
:100CF80012109712109CAE0FAF107C007D32120AB2
:100D080092AC06AD07E41209ABA804A905AA06AB84
:100D1800077F007E607D6A7C47120909E4FBFA7947
:100D28002078411208001209E48E0C8F0D7C007D9A
:100D38000A120AA4ED2430F50B750A2C75110075FA
:100D48001201AE0CAF0D7C007D0A120AA48E0C8F26
:100D58000D7C007D0A120AA4ED2430FF74082512C8
:100D6800F8A607E512151270021511E512B4FFD2A4
:100D7800E511B4FFCD7B007A0079081210227BFFC1
:100D88007A0F797D121022850F5185105275110046
:100D9800751202AE51AF527C007D0A120AA4ED24EE
:100DA80030FF74082512F8A607AE51AF527C007DBB
:100DB8000A120AA48E518F52E512151270021511EB
:100DC800E512B4FFCEE511B4FFC9E4F50BFB7A00D8
:100DD80079081210227BFF7A0F79851210221210DF
:0E0DE800A17BFF7A0F7991121022750E012265
:08107C006469740064616800FE
:030EDA00016A00AA
:03000300020B4E9F
:100B4E00C0E0C0F0C083C082C0D075D000C000C06D
:100B5E0001C002C003C004C005C006C007E50E6098
:100B6E0003020C9DE51024FEFFE50F34FFFE7C0012
:100B7E007D03120A92E4FDAB67AA66A965A864C359
:100B8E00120AE84020E51024FEFFE50F34FFFE7C3C
:100B9E00007D03120A92E4FDA864D3120AE8500500
:100BAE00120FD88048E51024FEFFE50F34FFFE7CBF
:100BBE00007D07120A92E4FDAB67AA66A965A864D8
:100BCE00C3120AE84027E51024FEFFE50F34FFFEAE
:100BDE007C007D07120A92E4FDA864D3120AE85045
:100BEE000C120FD87B007A00792012102212106698
:100BFE0030B2FD856668856769751100751203AEA2
:100C0E0068AF697C007D0A120AA4ED2430FF7408D7
:100C1E002512F8A607AE68AF697C007D0A120AA4F9
:100C2E008E688F69E512151270021511E512B4FF68
:100C3E00CEE511B4FFC97B007A007908121022AEFE
:100C4E000FAF10E4FCFDAB67AA66A965A864D312CA
:100C5E000AE8500EE4FFFE120F377BFF7A10797C04
:100C6E008028AE0FAF107C007D03120A92E4FDAB1C
:100C7E0067AA66A965A864C3120AE8401F7F017EB1
:100C8E0000120F377BFF7A107980121022800D121E
:100C9E001097750E007FC87E00121045121066D098
:100CAE0007D006D005D004D003D002D001D000D09A
:0A0CBE00D0D082D083D0F0D0E03215
:03000B00020FB031
:100FB000C0E0C0D0056AE56A64047017F56AE567A9
:100FC0002401F567E43566F566E43565F565E435D5
:080FD00064F564D0D0D0E032DA
:10080000EC4D6011E8497017ED33EC3304600DE4F2
:10081000FCFFFEFD22E933E8330470F8020A5012AF
:100820000A1B58046009E4CC2481500628500902B0
:100830000A5A284003020A57C0E0EB4A7044B980C4
:1008400006D0E0FB020A46EF4E701CBD8008EBFFAD
:10085000EAFEE9FD80EBE98DF0A4FEE5F00208E98F
:10086000E9CDF9EAFEEBFFEF89F0A4FCE5F0CE89D3
:10087000F0A42EFFE435F0CD89F0A42DFEE435F090
:100880008067EF4E7005BD80D780C3EF8BF0A4ACBE
:10089000F0EE8BF0A42CFCE435F0F8EF8AF0A42CF9
:1008A000E5F038FCE433CB8DF0A42CFCE5F03BF80C
:1008B000EE8AF0A42CFCE5F038F8E433CF89F0A4FC
:1008C0002CFCE5F038CF3400CE89F0A42FFFE5F002
:1008D0003EFEE433C98DF0A42EFEE5F039CD8AF05A
:1008E000A42FFFE5F03EFEE43DFD33D0E0FB5007D2
:1008F0000BBB000F020A5AEC2CFCEF33FFEE33FE69
:06090000ED33FD020A3296
:10090600020A5AEC5D046005E859047003020A50B5
:10091600120A1B580460F6EC4860F2EC7004FDFE07
:10092600FF22C860DB2481C85009C39860025006C4
:10093600020A579850CAF582E9294B4A7005AB82DC
:10094600020A4675F0007C1A7880C3EF9BEE9AED9A
:1009560099400DC3EF9BFFEE9AFEED99FDE842F03C
:10096600DC23ACF0D0E0FFD0E0FED0E0FDAB82208F
:10097600E7101BEB60BAEC2CFCEF33FFEE33FEED19
:1009860033FD020A32E803F830E705C0F075F000DF
:10099600EF2FFFEE33FEED33FD40B830E7C280AAFD
:1009A60075F020800E75F010800575F0087D007ECC
:1009B600007F003392D530D503120ADAEC334010AB
:1009C600EF33FFEE33FEED33FDEC33FCD5F0ED22D5
:0E09D600E5F0247EA2D513CC92E7CDCEFF2211
:1009E400EDD2E7CD33EC3392D524814006E4FFFE0B
:1009F400FDFC22FCE4CFCECDCC24E0501174FF806A
:100A0400EDC3CC13CCCD13CDCE13CECF13CF047006
:070A1400F030D5DE020ADA22
:100A1B00E9D2E7C933E833F892D5EDD2E7CD33EC21
:070A2B0033FC5002B2D5229A
:100A3200EC30E7100FBF000C0EBE00080DBD000425
:100A42000BEB6014A2D5EB13FCED92E7FD2274FFD1
:100A5200FCFDFEFF22E480F8A2D574FF13FC7D802A
:030A6200E480EF3E
:03000000020DF6F8
:0C0DF600787FE4F6D8FD75816A020E3D9E
:100A6500BB010CE58229F582E5833AF583E0225046
:100A750006E92582F8E622BBFE06E92582F8E22290
:0D0A8500E58229F582E5833AF583E49322AA
:100A9200EF8DF0A4A8F0CF8CF0A428CE8DF0A42E78
:020AA200FE2232
:100AA400C2D5EC30E709B2D5E4C39DFDE49CFCEE6D
:100AB40030E715B2D5E4C39FFFE49EFE120AF9C3E2
:100AC400E49DFDE49CFC8003120AF930D507C3E4DD
:060AD4009FFFE49EFE22DC
:0E0ADA00C3E49FFFE49EFEE49DFDE49CFC222D
:100AE800EB9FF5F0EA9E42F0E99D42F0E89C45F064
:010AF80022DB
:100E0200021092E493A3F8E493A34003F68001F264
:100E120008DFF48029E493A3F85407240CC8C333F1
:100E2200C4540F4420C8834004F456800146F6DFC0
:100E3200E4800B0102040810204080900E82E47EC0
:100E4200019360BCA3FF543F30E509541FFEE493B5
:100E5200A360010ECF54C025E060A840B8E493A37C
:100E6200FAE493A3F8E493A3C8C582C8CAC583CAA7
:100E7200F0A3C8C582C8CAC583CADFE9DEE780BE5F
:010EDD000014
:100AF900BC000BBE0029EF8DF084FFADF022E4CCE1
:100B0900F875F008EF2FFFEE33FEEC33FCEE9DECA9
:100B1900984005FCEE9DFE0FD5F0E9E4CEFD22EDEF
:100B2900F8F5F0EE8420D21CFEADF075F008EF2F39
:100B3900FFED33FD4007985006D5F0F222C398FD2A
:050B49000FD5F0EA22C7
:00000001FF
