:1011AD00203E31455449414E4D53555257444B47BE
:1011BD004F485646234C23504A425843595A5123BF
:1011CD0023353423332323233223232323232323A0
:1011DD003136232323232323233723232338233972
:1011ED0030022F0001022B0001022D00000223000E
:1011FD00000225FFFF022700000221000002290046
:01120D0000E0
:10120F00E5B054F0C4540F2401FFE433FE7C007D9D
:10121F0032120C4E8E2F8F30C28C758902758A0553
:0C122F00858A8CD2A9D288D2A8D2AF2226
:03000300020EDA10
:100EDA00C0E0C0F0C083C082C0D075D000C000C0DE
:100EEA0001C002C003C004C005C006C007E52C4506
:100EFA002B705030B24DE53024FBFFE52F34FFFE56
:100F0A00C3E5249FE5239E400ED3E5249FE5239E57
:100F1A005005E4FFFE8027E53024FBFFE52F34FF70
:100F2A00FE7C007D03120C4EC3E5249FE5239E4000
:100F3A0070D3E5249FE5239E50677F017E00120F40
:100F4A00D6805EE52C6401452B705620B253E530FD
:100F5A0024FBFFE52F34FFFE7C007D03120C4EC3F9
:100F6A00E5249FE5239E400ED3E5249FE5239E506A
:100F7A000512125A802BE53024FBFFE52F34FFFEC1
:100F8A007C007D07120C4EC3E5249FE5239E401189
:100F9A00D3E5249FE5239E500812125A7F2012128D
:100FAA008F121278D28CA2B2E433752B00F52CF58D
:100FBA0080D007D006D005D004D003D002D001D00B
:0C0FCA0000D0D0D082D083D0F0D0E03234
:03000B0002123BA3
:10123B00C0E0052EE52E7002052D6404452D700CC3
:0F124B00F52DF52E0524E52470020523D0E032A1
:05128A0012120F80FEAE
:10127800C28C758A05858A8CE4F52DF52EF523F543
:0212880024221E
:100FD6008E088F09AC29AD2AE41208FD8F118E10F8
:100FE6008D0F8C0E7F007E007D007C40120DC3C0ED
:100FF60004C005C006C007AC25AD26EC1208FDD01E
:1010060003D002D001D0001208071209368E258FB0
:1010160026E5222526F526E5213525F525E50925AA
:1010260026F526E5083525F525C3E5269528F52276
:10103600E5259527F521052AE52A70020529AC291B
:10104600FDE41208FD8F118E108D0F8C0E7F007E31
:10105600007D007C40120DC3C004C005C006C00759
:10106600AC27AD28E41208FDD003D002D001D00091
:101076001208071209368E278F28AF09AE0802120A
:0110860092D7
:10125A0074312526F8E6FF12128F74FFF525F5265C
:0E126A00E4F521F522F529F52AF527F52822CD
:03128F008F0822A3
:031292008F802228
:100800000209A2E86480F8E933E83360110460F07B
:10081000ED33EC337009E8FCE9FDEAFEEBFF22045E
:1008200060DED3EB9FEA9EE99DE8C2E78CF0C2F759
:1008300095F0400CE8CCF8E9CDF9EACEFAEBCFFB25
:1008400012096D85D0F05804700320D5B3E8047008
:10085000075002B2D50209AC92D5EC0460F7E4CCA3
:10086000C0E0C398F8603B94186008400DD0E0FBEE
:10087000020984E4FBFAC9FC8028E830E406E4C9F4
:10088000FBE4CAFCE830E305E4C9CACBFCE8540742
:100890006010F8C3E913F9EA13FAEB13FBEC13FC4D
:1008A000D8F130F52FC3E49CFCEF9BFFEE9AFEEDF0
:1008B00099FDD0E0FBEF4E4D4C701222DB03020994
:1008C000A9EC2CFCEF33FFEE33FEED33FDED30E70A
:1008D000EB020984EF2BFFEE3AFEED39FDD0E0FB91
:1008E00050130BBB00030209ACED13FDEE13FEEF3A
:0808F00013FFEC13FC02098464
:1008F80075F020800E75F010800575F0087D007E7B
:10090800007F003392D530D503120C60EC334010D1
:10091800EF33FFEE33FEED33FDEC33FCD5F0ED2283
:0E092800E5F0247EA2D513CC92E7CDCEFF22BF
:10093600EDD2E7CD33EC3392D524814006E4FFFEB9
:10094600FDFC22FCE4CFCECDCC24E0501174FF8018
:10095600EDC3CC13CCCD13CDCE13CECF13CF0470B5
:07096600F030D5DE020C6049
:100DC3008F0D8E0C8D0B8C0AE4FFFE7D807C3FAB78
:100DD3000DAA0CA90BA80A120AD77009AF0DAE0C05
:100DE300AD0BAC0A22AF0DAE0CAD0BAC0A1209B7BA
:100DF300FBAF11AE10AD0FAC0E1209B7FFBF010868
:100E0300E4FFFE7D807C3F22EF64046022EB6404F8
:100E1300601DBB0127E4FFFEFDFCAB11AA10A90F67
:100E2300A80E120AD760084006E4FFFEFDFC2274F8
:100E3300FFF511F510F50FF50E020ED1E4F512F5DD
:100E430013FFFEFDFCAB0DAA0CA90BA80A120AD7CF
:100E5300504BAF11AE10AD0FAC0E1209368E128F80
:100E630013AC12AD13EC1208FDC8ECC8C9EDC9CA26
:100E7300EECACBEFCBAF11AE10AD0FAC0E12080321
:100E8300E4FBFAF9F8120AD770A5AF0DAE0CAD0B5F
:100E9300AC0A120B508F0D8E0C8D0B8C0AAF0DAE5E
:100EA3000CAD0BAC0A120CC2AB11AA10A90FA80E01
:100EB3001209D11210BF8F118E108D0F8C0EE513F6
:100EC30030E00B120B508F118E108D0F8C0EAF1163
:070ED300AE10AD0FAC0E22C2
:10096D00E9D2E7C933E833F892D5EDD2E7CD33ECD0
:07097D0033FC5002B2D52249
:10098400EC30E7100FBF000C0EBE00080DBD0004D4
:100994000BEB6014A2D5EB13FCED92E7FD2274FF80
:1009A400FCFDFEFF22E480F8A2D574FF13FC7D80D9
:0309B400E480EFED
:1009B700ED33EC33601004700FED547F7005740253
:0A09C70092E0227404220422E422CC
:1009D100EC4D6011E8497017ED33EC3304600DE420
:1009E100FCFFFEFD22E933E8330470F80209A2128C
:1009F100096D58046009E4CC24815006285009028D
:100A010009AC2840030209A9C0E0EB4A7044B9804F
:100A110006D0E0FB020998EF4E701CBD8008EBFF89
:100A2100EAFEE9FD80EBE98DF0A4FEE5F0020ABAE9
:100A3100E9CDF9EAFEEBFFEF89F0A4FCE5F0CE8900
:100A4100F0A42EFFE435F0CD89F0A42DFEE435F0BD
:100A51008067EF4E7005BD80D780C3EF8BF0A4ACEB
:100A6100F0EE8BF0A42CFCE435F0F8EF8AF0A42C26
:100A7100E5F038FCE433CB8DF0A42CFCE5F03BF839
:100A8100EE8AF0A42CFCE5F038F8E433CF89F0A429
:100A91002CFCE5F038CF3400CE89F0A42FFFE5F02F
:100AA1003EFEE433C98DF0A42EFEE5F039CD8AF087
:100AB100A42FFFE5F03EFEE43DFD33D0E0FB5007FF
:100AC1000BBB000F0209ACEC2CFCEF33FFEE33FE45
:060AD100ED33FD02098473
:100AD70074F8CC6480CCC86480C8F58204604FC3C6
:100AE700EB9FF5F0EA9E42F0E99D42F0E89C45F065
:100AF700603C501DE5825FFFE582D313CB5BCBF4EF
:100B07002B5582FB50280ABA002409B90020088017
:100B17001DE5825BFBE582D313CF5FCFF4C3132FB1
:100B27005582FF50090EBE00050DBD00010CC3EB39
:100B37009FF5F0EA9E42F0E99D42F0E89C45F0609F
:090B470007CC4820E701B3EC22C1
:100B5000ED33EC33600A047003BD8004ECB2E7FCB3
:010B60002272
:1010870033DA929E35B16011377FE5FE39218489C5
:101097003AAEC3FF3C1D955B3D6358473E75FDF077
:1010A7003F3172183F800000C2D50209AC0209A285
:1010B700BD80FA50F30209A9ED33EC330460F17BEC
:1010C7003B7AAA79B8783F1209D1ED33EC3392D540
:1010D700247B5011A2D570DB500BED4480240450C3
:1010E70004A2D580CEEFFBEEFAEDF9ECF812093643
:1010F700EFF582F404FC120902120807C08290106F
:10110700877409120C10ED33CC33D0F092D525F04B
:0A111700A2D57001C313CC13FD2212
:100C8E003E9248DA3ECCCCCD3F2AAAAB40000000C3
:100C9E003F8000003F9837F03FB504F33FD744FC48
:100CAE003E3172173EB172173F0515913EDE5BD98C
:100CBE00D2008002C200EDD2E7F8CD33EC330470DF
:100CCE000BBD800592D50209AC0209A240FBD314DC
:100CDE0060F2F5F07C3FEE7A00C39496C8948B4098
:100CEE00230AC89469C8941A401A0AC89468C8940A
:100CFE001F40110AC8945AC89425400805F07A007E
:100D0E00CDC2E7CDC0F08C148D158E168F17EA2349
:100D1E0023C0E0249EF582E4340CF583120C7E127F
:100D2E000807ECC0E0EDC0E0EEC0E0EFC0E0120C52
:100D3E006EA814A915AA16AB17120803D0E0FBD0A3
:100D4E00E0FAD0E0F9D0E0B2E7F8120B648C148D23
:100D5E00158E168F17900C8E7403120C01A814A901
:100D6E0015AA16AB171209D1D0E0600F24AAF5828E
:100D7E00E4340CF583120C7E1208078C148D158E3C
:100D8E00168F17D0E0C3947FFDE49400FC1208FD8B
:100D9E007B187A727931783F1209D1A814A915AA55
:100DAE0016AB1712080730000B7BD97A5B79DE7809
:050DBE003E1209D122E4
:100B61000209ACEC5D046005E8590470030209A2B6
:100B710012096D580460F6EC4860F2EC7004FDFE59
:100B8100FF22C860DB2481C85009C3986002500667
:100B91000209A99850CAF582E9294B4A7005AB822E
:100BA10002099875F0007C1A7880C3EF9BEE9AEDEC
:100BB10099400DC3EF9BFFEE9AFEED99FDE842F0DF
:100BC100DC23ACF0D0E0FFD0E0FED0E0FDAB822032
:100BD100E7101BEB60BAEC2CFCEF33FFEE33FEEDBC
:100BE10033FD020984E803F830E705C0F075F00031
:100BF100EF2FFFEE33FEED33FD40B830E7C280AAA0
:100C0100C0E0EFFBEEFAEDF9ECF81209D1D0E0F516
:100C1100F0EFFBEEFAEDF9ECF8120C6EA3A3A3A32F
:100C2100E8C0E0E9C0E0EAC0E0EBC0E0C0F01209D2
:100C3100D1120C7EA3A3A3A3120807D0F0D0E0FB2E
:0D0C4100D0E0FAD0E0F9D0E0F8D5F0D422F0
:03000000021121C9
:0C112100787FE4F6D8FD75816E0211683D
:100C4E00EF8DF0A4A8F0CF8CF0A428CE8DF0A42EBA
:020C5E00FE2274
:0E0C6000C3E49FFFE49EFEE49DFDE49CFC22A5
:100C6E00E493FC740193FD740293FE740393FF22CC
:100C7E00E493F8740193F9740293FA740393FB22CC
:10112D0002128AE493A3F8E493A34003F68001F23C
:10113D0008DFF48029E493A3F85407240CC8C333C3
:10114D00C4540F4420C8834004F456800146F6DF92
:10115D00E4800B01020408102040809011ADE47E64
:10116D00019360BCA3FF543F30E509541FFEE49387
:10117D00A360010ECF54C025E060A840B8E493A34E
:10118D00FAE493A3F8E493A3C8C582C8CAC583CA79
:10119D00F0A3C8C582C8CAC583CADFE9DEE780BE31
:01120E0000DF
:00000001FF
