:100F6D002057504D207C2000206D7320706572201D
:100F7D00646974007573696E67202250415249533C
:100F8D0022207769746820353020656C656D656E3B
:0B0F9D007473006469740064616800F4
:100E7200203E22455449414E4D53555257444B470B
:100E82004F485646234C23504A425843595A5123FD
:100E920023353423332323233223232323232323DE
:100EA20031362323232323232337232323382339B0
:100EB20030021E0001011D01011C000210FFFF0291
:0B0EC2001200000208000002140000F3
:10104300E4FDFCC3ED9FEC9E5016E4FBEBC394A2BE
:101053007480948050030B80F30DBD00010C80E37A
:01106300226A
:100FF9007F2C7E01121043C290C291C2927F2812A7
:10100900107AD292C2927F2812107A7F0C12107A2B
:051019007F0102107AC6
:07107A00C290C291020ECEEC
:07108100C291D290020ECED5
:100ECE007E01EF339297EF25E0FF339296EF25E008
:100EDE00FF339295EF25E0FF339294EF25E0FFD29A
:100EEE009200C292339297EF25E0FF339296EF2550
:100EFE00E0FF339295EF25E0339294D29200C292A6
:100F0E00D297EE6013C290D291D292A297E433FEA2
:080F1E00C292D292C29280EA55
:010F260022A8
:060FA8007B007A007916BF
:060FAE008B678A68896967
:100FB400E4F56AAB67AA68A969856A827583001239
:0C0FC4000A65FF6007121081056A80E7D3
:010FD00022FE
:051088007F0102107A57
:05108D007F8002107AD3
:051092007FC002107A8E
:100CC200E5B054F0C4540F2401FFE433FE7C007DF0
:100CD20019120A928E1E8F1FC28C758902758A059F
:100CE200858A8CD2A9C288D2A8D2AFD28C120FF92F
:100CF20012108812108DAE1EAF1F7C007D32120AB8
:100D020092AC06AD07E41209ABA804A905AA06AB8A
:100D1200077F007E607D6A7C47120909E4FBFA794D
:100D22002078411208001209E48E1A8F1B7C007D84
:100D32000A120AA4ED2430F51975182C75200075D5
:100D42002101AE1AAF1B7C007D0A120AA48E1A8FF3
:100D52001B7C007D0A120AA4ED2430FF74162521A3
:100D6200F8A607E521152170021520E521B4FFD26E
:100D7200E520B4FFCD120FA87BFF7A0F796D120F19
:100D8200AE851E60851F61752000752102AE60AFC1
:100D9200617C007D0A120AA4ED2430FF741625211D
:100DA200F8A607AE60AF617C007D0A120AA48E60CD
:100DB2008F61E521152170021520E521B4FFCEE5F2
:100DC20020B4FFC9E4F519FB120FAA7BFF7A0F7951
:100DD20075120FAE1210927BFF7A0F7981120FAE4D
:040DE200751D012258
:03000300020B4E9F
:100B4E00C0E0C0F0C083C082C0D075D000C000C06D
:100B5E0001C002C003C004C005C006C007E51D6089
:100B6E0003020C97E51F24FEFFE51E34FFFE7C00FA
:100B7E007D03120A92E4FDAB0DAA0CA90BA80AC3C1
:100B8E00120AE84020E51F24FEFFE51E34FFFE7C1E
:100B9E00007D03120A92E4FDA80AD3120AE850055A
:100BAE0012101E8048E51F24FEFFE51E34FFFE7C5A
:100BBE00007D07120A92E4FDAB0DAA0CA90BA80A40
:100BCE00C3120AE84027E51F24FEFFE51E34FFFE90
:100BDE007C007D07120A92E4FDA80AD3120AE8509F
:100BEE000C12101E7B007A007920120FAE121064C8
:100BFE0030B2FD850C0E850D0F752000752103AEEC
:100C0E000EAF0F7C007D0A120AA4ED2430FF74167D
:100C1E002521F8A607AE0EAF0F7C007D0A120AA49E
:100C2E008E0E8F0FE521152170021520E521B4FFE0
:100C3E00CEE520B4FFC9120FA8AE1EAF1FE4FCFD17
:100C4E00AB0DAA0CA90BA80AD3120AE8500EE4FFAA
:100C5E00FE120F277BFF7A0F79A08028AE1EAF1FE2
:100C6E007C007D03120A92E4FDAB0DAA0CA90BA821
:100C7E000AC3120AE8401F7F017E00120F277BFF76
:100C8E007A0F79A4120FAE800D121088751D007F99
:100C9E00C87E00121043121064D007D006D005D0C3
:100CAE0004D003D002D001D000D0D0D082D083D0D7
:040CBE00F0D0E03260
:03000B00020FD110
:100FD100C0E0C0D0051CE51C64047017F51CE50DCC
:100FE1002401F50DE4350CF50CE4350BF50BE43576
:080FF1000AF50AD0D0D0E0326D
:05109700120CC280FEF6
:10106400C28C758A05858A8CE4F51CF50DF50CF5A2
:061074000BF50AD28C22EC
:100F2700E51564022511F511E5143510F510E509ED
:100F37002511F511E5083510F510EF2511F511EE1E
:100F47003510F510C3E5119513F509E5109512F560
:100F5700080515E5157002051464022513F513E558
:060F6700143512F5122200
:10101E0074222511F8E6F5627B007A007962120FD0
:10102E00AE74FFF510F511E4F508F509F514F51594
:04103E00F512F5139F
:01104200228B
:10080000EC4D6011E8497017ED33EC3304600DE4F2
:10081000FCFFFEFD22E933E8330470F8020A5012AF
:100820000A1B58046009E4CC2481500628500902B0
:100830000A5A284003020A57C0E0EB4A7044B980C4
:1008400006D0E0FB020A46EF4E701CBD8008EBFFAD
:10085000EAFEE9FD80EBE98DF0A4FEE5F00208E98F
:10086000E9CDF9EAFEEBFFEF89F0A4FCE5F0CE89D3
:10087000F0A42EFFE435F0CD89F0A42DFEE435F090
:100880008067EF4E7005BD80D780C3EF8BF0A4ACBE
:10089000F0EE8BF0A42CFCE435F0F8EF8AF0A42CF9
:1008A000E5F038FCE433CB8DF0A42CFCE5F03BF80C
:1008B000EE8AF0A42CFCE5F038F8E433CF89F0A4FC
:1008C0002CFCE5F038CF3400CE89F0A42FFFE5F002
:1008D0003EFEE433C98DF0A42EFEE5F039CD8AF05A
:1008E000A42FFFE5F03EFEE43DFD33D0E0FB5007D2
:1008F0000BBB000F020A5AEC2CFCEF33FFEE33FE69
:06090000ED33FD020A3296
:10090600020A5AEC5D046005E859047003020A50B5
:10091600120A1B580460F6EC4860F2EC7004FDFE07
:10092600FF22C860DB2481C85009C39860025006C4
:10093600020A579850CAF582E9294B4A7005AB82DC
:10094600020A4675F0007C1A7880C3EF9BEE9AED9A
:1009560099400DC3EF9BFFEE9AFEED99FDE842F03C
:10096600DC23ACF0D0E0FFD0E0FED0E0FDAB82208F
:10097600E7101BEB60BAEC2CFCEF33FFEE33FEED19
:1009860033FD020A32E803F830E705C0F075F000DF
:10099600EF2FFFEE33FEED33FD40B830E7C280AAFD
:1009A60075F020800E75F010800575F0087D007ECC
:1009B600007F003392D530D503120ADAEC334010AB
:1009C600EF33FFEE33FEED33FDEC33FCD5F0ED22D5
:0E09D600E5F0247EA2D513CC92E7CDCEFF2211
:1009E400EDD2E7CD33EC3392D524814006E4FFFE0B
:1009F400FDFC22FCE4CFCECDCC24E0501174FF806A
:100A0400EDC3CC13CCCD13CDCE13CECF13CF047006
:070A1400F030D5DE020ADA22
:100A1B00E9D2E7C933E833F892D5EDD2E7CD33EC21
:070A2B0033FC5002B2D5229A
:100A3200EC30E7100FBF000C0EBE00080DBD000425
:100A42000BEB6014A2D5EB13FCED92E7FD2274FFD1
:100A5200FCFDFEFF22E480F8A2D574FF13FC7D802A
:030A6200E480EF3E
:03000000020DE608
:0C0DE600787FE4F6D8FD75816A020E2DBE
:100A6500BB010CE58229F582E5833AF583E0225046
:100A750006E92582F8E622BBFE06E92582F8E22290
:0D0A8500E58229F582E5833AF583E49322AA
:100A9200EF8DF0A4A8F0CF8CF0A428CE8DF0A42E78
:020AA200FE2232
:100AA400C2D5EC30E709B2D5E4C39DFDE49CFCEE6D
:100AB40030E715B2D5E4C39FFFE49EFE120AF9C3E2
:100AC400E49DFDE49CFC8003120AF930D507C3E4DD
:060AD4009FFFE49EFE22DC
:0E0ADA00C3E49FFFE49EFEE49DFDE49CFC222D
:100AE800EB9FF5F0EA9E42F0E99D42F0E89C45F064
:010AF80022DB
:100DF200021097E493A3F8E493A34003F68001F270
:100E020008DFF48029E493A3F85407240CC8C33301
:100E1200C4540F4420C8834004F456800146F6DFD0
:100E2200E4800B0102040810204080900E72E47EE0
:100E3200019360BCA3FF543F30E509541FFEE493C5
:100E4200A360010ECF54C025E060A840B8E493A38C
:100E5200FAE493A3F8E493A3C8C582C8CAC583CAB7
:100E6200F0A3C8C582C8CAC583CADFE9DEE780BE6F
:010ECD000024
:100AF900BC000BBE0029EF8DF084FFADF022E4CCE1
:100B0900F875F008EF2FFFEE33FEEC33FCEE9DECA9
:100B1900984005FCEE9DFE0FD5F0E9E4CEFD22EDEF
:100B2900F8F5F0EE8420D21CFEADF075F008EF2F39
:100B3900FFED33FD4007985006D5F0F222C398FD2A
:050B49000FD5F0EA22C7
:00000001FF
