:10090D00020AFFFF020C000002080000020E0000A8
:05091E0012000080FE44
:1008F700C28C758A05858A8CE4F500F500F500F54C
:0609070000F500D28C2275
:10088C00E50F6402250BF50BE50E350AF50AE509B3
:10089C00250BF50BE508350AF50AEF250BF50BEEE4
:1008AC00350AF50AC3E50B950DF509E50A950CF526
:1008BC0008050FE50F7002050E6402250DF50DE518
:0608CC000E350CF50C22B4
:1008D2007400250BF8E6F5107B007A0079101200FF
:1008E2000074FFF50AF50BE4F508F509F50EF50FAE
:0408F200F50CF50DFF
:0108F60022DF
:03000000020800F3
:0C080000787FE4F6D8FD758110020847EF
:10080C0002091EE493A3F8E493A34003F68001F2DB
:10081C0008DFF48029E493A3F85407240CC8C333ED
:10082C00C4540F4420C8834004F456800146F6DFBC
:10083C00E4800B010204081020408090090DE47E36
:10084C00019360BCA3FF543F30E509541FFEE493B1
:10085C00A360010ECF54C025E060A840B8E493A378
:10086C00FAE493A3F8E493A3C8C582C8CAC583CAA3
:10087C00F0A3C8C582C8CAC583CADFE9DEE780BE5B
:01091D0000D9
:00000001FF
